:020000040800F2
:104000009882002045270108F9230108FB230108B5
:10401000FD230108FF23010801240108000000001E
:104020000000000000000000000000000324010860
:1040300005240108000000000724010809240108E4
:10404000AD270108B1270108B52701081B24010885
:10405000B9270108BD270108C1270108C5270108A4
:10406000C9270108CD270108D1270108D527010854
:10407000D9270108DD270108E1270108E527010804
:10408000E9270108ED270108F1270108F5270108B4
:10409000F9270108FD270108012801082324010848
:1040A00005280108092801080D2801081124010824
:1040B00011280108372401081528010819280108CA
:1040C0001D280108212801082528010829280108A0
:1040D0002D28010831280108352801083928010850
:1040E0003D28010841280108452801084928010800
:1040F0004D280108512801085528010859280108B0
:104100005D2801086128010865280108692801085F
:104110006D2801087128010875280108792801080F
:104120007D280108812801088528010889280108BF
:104130008D2801089128010895280108992801086F
:104140009D280108A1280108A52801082D2401089F
:10415000A9280108AD280108B1280108B5280108DF
:10416000B9280108BD280108C1280108C52801088F
:10417000C9280108CD280108D12801080000000045
:10418000D5280108D92801084FF4E07210440268CC
:10419000914203D343681A44914202D380680028B5
:1041A000F5D17047DFF85C07016891B94FF48031B1
:1041B00081604FF4805141604FF0FF31C160016177
:1041C0000421DFF844274161C2F8BC11DFF83C1735
:1041D00001600120704701F1080313F0070305D0C7
:1041E00001F10803C3F1080303F007031944D21ACD
:1041F0008161C26042F001034B60114428234B608F
:10420000DFF800170969C16170472DE9F84F0646CC
:1042100001F1080010F0070008BF884607D001F13F
:104220000800C0F1080000F0070001EB000802F1EF
:10423000080010F0070006D002F10800C0F10800E5
:1042400000F0070002441546A5EB0800A0EB0309A7
:1042500008EB030B43F00300C8F80400AB4528BF8C
:1042600001F00CFA2879C00758BF01F007FAB9F13C
:10427000100F38BF01F002FAB069854209D1F06829
:104280004844F060C6F818B040F00100CBF80400D4
:1042900070E1706985420BD1B0684844B060C6F8DF
:1042A00014B040F00101CBF804104BF8000061E1BC
:1042B000686800F00301012940F0AF80C008C00029
:1042C0000190C00820283BD2D5F808A0EF680090E4
:1042D000BD4208BF01F0D2F9554508BF01F0CEF943
:1042E00068680099C008C000B0EBC10F18BF01F0AA
:1042F000C5F9009806EBC00000F128018A4508D0F6
:1043000031698A45C0F08480DAF80C10A94240F087
:104310007F80574506D1009A30680121914088433B
:10432000306077E02830874205D0306987426FD30C
:10433000B868A8426CD1CAF80C70C7F808A069E048
:10434000EF68D5F818A0AF420CD0A8683169884250
:1043500023D3C168A94204BFB968A9421DD1C7606F
:10436000B8601CE005F11400076837B905F11000CA
:104370000768A7B101E00846076807F114010A6859
:10438000002A02BF07F110010A68002AF3D131693F
:10439000884202D30021016001E001F06FF9BAF117
:1043A000000F37D0E86906EB80004FF4987108449D
:1043B00001688D4208D10760A7B9EA6970680121D8
:1043C00091408843706025E03069824508D3DAF86F
:1043D0001000A84214BFCAF81470CAF8107001E0A7
:1043E00001F04CF9B7B13069874211D3C7F818A072
:1043F000296929B1814226BF39618F6101F03EF9F7
:10440000686938B13169884202D37861876101E017
:1044100001F034F90198054481446868400840007F
:1044200068604FEAD90549F00100CBF804004BF869
:104430000990202D23D206EBC50000F12807BA46CB
:10444000B9F1100F38BF01F019F9306820FA05F101
:10445000C90704D40121A9400843306006E0B868C8
:10446000316988422CBF824601F008F9C7F808B0CC
:10447000CAF80CB0CBF808A0CBF80C707AE05FEA71
:10448000192108BF002023D0B1F5803F28BF1F208D
:104490001ED2A1F58070000C00F008008140A1F54B
:1044A0008052120C02F004029140A1F580431B0CD3
:1044B000C0F10E0003F00203801AC01A994000EB0D
:1044C000D130C11D29FA01F202F0010101EB4000D7
:1044D00006EB80014FF498721144CBF81C000022C7
:1044E000CBF81420CBF81020726822FA00F3DB0717
:1044F00007D4012303FA00F010437060C1F800B044
:104500001DE009681F281DBF4008C0F1190009FA05
:1045100000F0484600E011464A68D208D2004A45F9
:1045200014D0C20F01EB820202F1100340001A689E
:10453000002AF0D1306983421AD3C3F800B0CBF817
:104540001810CBF80CB0CBF808B013E032698868CB
:10455000914228BF90420BD3C0F80CB0C1F808B00C
:10456000CBF80800CBF80C100020CBF8180001E0C5
:1045700001F084F808F10800BDE8E68F2DE9FA4D56
:104580000546DFF88003006882B008B9FFF70AFE2D
:10459000DFF870030299806841182F31401E21EA2C
:1045A00000000299814280F0A9814FF4D8716E1801
:1045B000B16839B132688018824280F09F818142AF
:1045C000C0F09C8101F062F800281EBF0446D0F8BC
:1045D000008014F1010F00F091813068716840444F
:1045E0008142306038BF01467160A86980BB28698C
:1045F00008B1844200D22C610020F0613461C6F819
:10460000148005F12801BF48006868624FF0FF3050
:1046100028620020C960896001F108024A610A61CC
:10462000801C10312028F5D3B748854203D1A8F16A
:10463000280221462AE055F8040CC00805EBC0000A
:10464000A0F1080104EB0800401AA0F128021DE0C7
:104650004FF4E0702918084600E08068D0B1026885
:1046600043681A449442F8D1027B120712D4AA6913
:1046700003689A420ED347683B449A420AD208EB39
:1046800007014160E868A96908EB00022846FFF7C6
:10469000A2FD1DE128698442084638BF2C6104EB65
:1046A000080100E0806880B102688A42FAD1017B8B
:1046B00009070AD404604168414441602146029BD5
:1046C000284604B0BDE8F04D9FE5AF69394628465D
:1046D000FFF75AFD4FF0000B016840680844019055
:1046E000273810F0070101990EBF0020C0F1080023
:1046F00000F0070008442F3807F11001884234BF4A
:1047000000970090009804F1080100F1180A11F0D8
:104710000701A8F1280005D004F10801C1F1080142
:1047200001F00701401A2144A961E86040F001024C
:104730004A6008442822426072480069E861009893
:10474000083010F0070018BF00F098FF00991B20F8
:1047500048604FF4E0712944B1E80C5000980830EB
:10476000A0E80C503461C6F81480C6F81CB000985C
:104770000830B061019801E00AF1040A0721CAF883
:1047800004100BF1010B0AF108018142F4D3BBF1D3
:10479000020FB8BF00F072FF0098B84200F0988096
:1047A000C01B3918C4084A68520852004A6040F0D9
:1047B000010179603850202C20D205EBC40101F1B1
:1047C0002806B046102838BF00F058FF286820FAA5
:1047D00004F1C90704D40121A1400843286006E080
:1047E000B068296988422CBF804600F047FFB76057
:1047F000C8F80C70C7F80880FE6069E0010A23D091
:10480000B1F5803F28BF1F211ED2A1F58072120C86
:1048100002F008029140A1F580531B0C03F0040341
:104820009940A1F58044240CC2F10E0204F0020468
:10483000D21A121BA14002EBD131CA1D20FA02F399
:1048400003F0010202EB410105EB81024FF4987382
:104850001A44F96100237B613B616B6823FA01F420
:10486000E40705D4012088401843686017601CE005
:1048700012681F291DBF4908C1F1190100FA01F191
:10488000014600E01A465368DB08DB00834210D083
:10489000CB0F02EB830303F1100449002368002BC4
:1048A000F0D12869844211D32760BA61FF60BF60EC
:1048B0000EE0296990688A4228BF884206D3C76003
:1048C0009760B860FA600020B86101E000F0D6FEA1
:1048D000E8680299814211D2401AE860A969029AF7
:1048E0000A44AA6140F001005060029840F00300C1
:1048F000486004B001F10800BDE8F08D002004B06C
:10490000BDE8F08DACC10020E8B900206859883CB2
:104910002DE9F84F0446002689465FEA1920C9F1BF
:10492000000B08BF002123D0B0F5803F28BF1F2116
:104930001ED2A0F58071090C01F008018840A0F595
:104940008052120C02F004029040A0F580431B0C30
:10495000C1F10E0103F00203891AC91A984001EB54
:10496000D030C11D29FA01F202F0010101EB400132
:1049700004EB8100D0F8300118B31F290FBF4A465D
:104980004A08C2F1190209FA02F2002300E05200BB
:104990004568ED08ED00A5EB09055D4503D25FEA2A
:1049A000050B06460BD04569D70F00EB8700002D9D
:1049B00000691CBF85422B460028E8D11846B8BBC9
:1049C000C6BB01208840400041420843616808405E
:1049D00000F05D8141420840401E010B01F01001D2
:1049E000C840420902F00802D040830803F00403E3
:1049F000D840450805F002055118E8405918C0F3A1
:104A0000400729443944F840401804EB8000D0F8AE
:104A100030010DE008464168C908C900A1EB090151
:104A200059453CBF8B46064601690029F2D14069D1
:104A30000028F0D1002E00F02A81A068A0EB090028
:104A4000834580F0248120698642C0F01E81706811
:104A5000C00809EB0B08C000404518BF00F00EFE6F
:104A600006EB0905AE4280F01081F768D6F818A071
:104A7000B7420CD0B0682169884223D3C168B142E3
:104A800004BFB968B1421DD1C760B8601CE006F12F
:104A90001400076837B906F110000768A7B101E0F4
:104AA0000846076807F114010A68002A02BF07F1E7
:104AB00010010A68002AF3D12169884202D300213B
:104AC000016001E000F0DAFDBAF1000F39D0F069C1
:104AD00004EB80004FF49871084401688E4209D1BC
:104AE0000760380014D1F269606801219140884361
:104AF000606026E02069824508D3DAF81000B042F1
:104B000014BFCAF81470CAF8107001E000F0B6FDC6
:104B1000BFB12069874212D3C7F818A0306930B1FD
:104B20002169884226BF3861876100F0A7FD70695E
:104B300038B12169884202D37861876101E000F0D1
:104B40009DFDBBF1100F09D248F00300706006EB29
:104B50000800416841F00101416095E049F003001F
:104B600070604BF0010068604FEADB0045F80BB065
:104B700020281DD204EBC00101F12807216821FA89
:104B800000F2D207BB4605D4012202FA00F0084326
:104B9000206006E0B868216988422CBF834600F097
:104BA0006DFDBD60CBF80C50C5F808B0EF606BE050
:104BB0005FEA1B2023D0B0F5803F28BF1F201ED204
:104BC000A0F58071090C01F008018840A0F5805221
:104BD000120C02F004029040A0F580431B0CC1F1BE
:104BE0000E0103F00203891AC91A984001EBD03074
:104BF000C11D2BFA01F202F0010101EB400004EBB0
:104C000080014FF498721144E86100226A612A61C0
:104C1000626822FA00F3DB0706D4012303FA00F0EE
:104C2000104360600D601CE009681F281DBF40082C
:104C3000C0F119000BFA00F0584600E011464A682E
:104C4000D208D2005A4510D0C20F01EB820202F105
:104C5000100340001A68002AF0D12069834211D362
:104C60001D60A961ED60AD600EE022698868914227
:104C700028BF904206D3C5608D60A860E96000201F
:104C8000A86101E000F0FAFC08E100F0F7FC02E1A5
:104C90002DE9F84F04468846606841420840401EAE
:104CA000010B01F01001C840420902F00802D04097
:104CB000830803F00403D840450805F002055118A5
:104CC000E8405918C0F3400629447118F0404018D4
:104CD00004EB8000D0F830014168C908C9000646DD
:104CE000A1EB080A09E008464168C908C900A1EB20
:104CF000080151453CBF8A46064601690029F2D1A8
:104D000040690028F0D120698642C0F0C2807068F6
:104D1000C00808EB0A09C000484518BF00F0AEFC07
:104D200006EB080B5E4580F0B480F768B569B742C2
:104D30000CD0B0682169884223D3C168B14204BF56
:104D4000B968B1421DD1C760B8601CE006F114001B
:104D5000076837B906F110000768A7B101E00846F7
:104D6000076807F114010A68002A02BF07F1100161
:104D70000A68002AF3D12169884202D30021016028
:104D800001E000F07BFC002D35D0F06904EB8000E1
:104D90004FF49871084401688E4209D107603800C9
:104DA00011D1F2696068012191408843606022E07E
:104DB0002069854205D32869B04214BF6F612F6115
:104DC00001E000F05BFCB7B12069874211D3BD61FF
:104DD000306930B12169884226BF3861876100F0AF
:104DE0004DFC706938B12169884202D378618761CE
:104DF00001E000F043FCBAF1100F09D249F00300C2
:104E0000706006EB0900416841F0010141603FE03C
:104E100048F0030070604AF00100CBF804004BF842
:104E20000AA0D4F808804FEAD805202D28BF00F04A
:104E300025FCB8F1000F27D0D4F81490009504EBAE
:104E4000C50000F128052F46B8F1100F38BF00F05B
:104E500015FC2068009920FA01F2D10705D4009AC8
:104E6000012191400843206006E0A868216988423A
:104E70002CBF074600F002FCC5F80890C7F80C905C
:104E8000C9F80870C9F80C50C4F808A0C4F814B0E8
:104E900004E000F0F3FB0020BDE8F28F06F108000B
:104EA000BDE8F28F2DE9F04F83B00546C046C046FD
:104EB000F52DDFF8C04780F002810B2D31BF1027A0
:104EC00005F10B00C708FF002068FE08F04010F055
:104ED000030F42D0C04300F00100861904EBC60066
:104EE00000F12808F700D8F808506868C008C0002A
:104EF000B84218BF00F0C2FBD5F80890454508BF7E
:104F000000F0BCFB4D4508BF00F0B8FB6868C00866
:104F1000C000B84218BF00F0B1FBC84505D12068F9
:104F20000121B140884320600DE02069814508D30C
:104F3000D9F80C00A84204D1C8F80890C9F80C8030
:104F400001E000F09BFB47F003006860E8190835BA
:104F5000416841F001014160F9E0A168B94280F087
:104F6000C080002800F0A280012505FA06F1490062
:104F70004A42B0401143084041420840401E010BE4
:104F800001F01001C840420902F00802D040830835
:104F900003F00403D840460806F002065118F0401A
:104FA0005918C0F340087118414420FA08F000EB8A
:104FB000010804EBC80000F128094FEAC80AD9F833
:104FC00008607068C008C000504518BF00F056FB6C
:104FD000D6F808B04E4508BF00F050FB5E4508BF4C
:104FE00000F04CFB7068C008C000504518BF00F0CE
:104FF00045FBD94505D1206805FA08F188432060B2
:105000000DE02069834508D3DBF80C00B04204D1E1
:10501000C9F808B0CBF80C9001E000F02FFB47F086
:1050200003007060AAEB0708F019019048F0010036
:1050300001994860019840F80880A7684FEAD70AAC
:10504000BAF1200F28BF00F019FB47B3CDF800A03C
:1050500004EBCA00D4F8149000F1280AD346102FAC
:1050600038BF00F00BFB2068009920FA01F2D1074D
:1050700005D4009905FA01F10843206007E0DAF849
:105080000800216988422CBF834600F0F7FACAF86D
:105090000890CBF80C90C9F808B0C9F80CA0C4F877
:1050A000088006F108050198606150E06068C0B3AF
:1050B00039462046FFF7ECFD050012D047E015F118
:1050C000400F28BF4FF0FF370BD205F10B00C70888
:1050D0006068FF0028B139462046FFF719FC05003B
:1050E00035D1A068B8421CD3C11B626910290AD30C
:1050F000D0196061A16041F001034360415047F065
:10510000030050600AE00021A160616140F00301EA
:1051100051601044416841F00101416002F108050D
:1051200015E0E06887420DD2C01BA169E060CA1992
:10513000A26140F00100506001F1080547F0030052
:10514000486004E039462046FFF718FA0546C04695
:10515000C046284603B0BDE8F08F00B970472DE97E
:10516000F047A0F10804C046C046DFF8085528699A
:105170008442C0F07982616801F00302012A00F0E4
:105180007382CA084FEAC208CA0704EB080937D479
:10519000226811F0030F00F0698251420C448442EE
:1051A0009044C0F0618269698C4200F0D980D608D1
:1051B000202E70D2D4F80CA0A768544508BF00F088
:1051C0005DFABC4208BF00F059FA6068C008C00030
:1051D000B0EBC60F18BF00F051FA05EBC60000F1A6
:1051E00028018F4205D029698F4251D3F968A14225
:1051F0004ED1BA453DD128680121B140884328608D
:105200004C4580F03182D9F80400C10740F12C826E
:10521000810700F17D81A969894540F0B680E86881
:10522000AC614044E86040F00101616069698C4212
:1052300002D100216961A960E969814280F016828A
:10524000DFF83404006808B9FEF7ACFFA96900294B
:1052500000F00C82E868292824BF2846FEF794FF56
:10526000E869E968884280F001824FF0FF30E86128
:10527000FCE12830824506D02869824508D3DAF857
:105280000800A04204D1C7F80CA0CAF80870B7E71C
:1052900000F0F4F9B4E7E768A669A7420BD0A1686B
:1052A000814222D3C868A04204BFB868A0421CD182
:1052B000CF60B9601BE004F114010F6837B904F145
:1052C00010010F689FB101E011460F6807F1140249
:1052D0001368002B02BF07F110021368002BF3D1F3
:1052E000814202D30020086001E000F0C7F9002EDF
:1052F00086D0E06905EB80004FF49871084401689E
:105300008C4209D10760380011D1E2696868012137
:1053100091408843686073E72869864205D3306905
:10532000A04214BF7761376101E000F0A7F9002FB8
:105330003FF466AF28698742AAD3BE61216929B1CB
:10534000814226BF39618F6100F098F960690028B9
:105350003FF456AF296988429AD3786187614FE755
:1053600099F8040000F0030003287FF449AFC5F862
:105370000880D9F8040040084000C9F8040048F04B
:105380000100606044F8088070E16969894508D1CE
:10539000A8686C614044A86040F001016160205041
:1053A00064E1C008C0004FEAD00ABAF1200F80447F
:1053B00037D2D9F80C70D9F80860B94508BF00F0A9
:1053C0005DF9B14508BF00F059F9D9F80400C008EB
:1053D000C000B0EBCA0F18BF00F050F905EBCA00CF
:1053E00000F128018E4207D029698E42C0F08380E7
:1053F000F168494540F07F80B74206D12868012115
:1054000001FA0AF18843286077E02830874205D006
:10541000286987426FD3B86848456CD1F760BE6091
:105420006BE0D9F80C70D9F818604F450DD0D9F859
:1054300008002969884223D3C168494504BFB96877
:1054400049451DD1C760B8601CE009F11400076828
:1054500037B909F110000768A7B101E008460768ED
:1054600007F114010A68002A02BF07F110010A6857
:10547000002AF3D12969884202D30021016001E0AA
:1054800000F0FCF8002E38D0D9F81C0005EB8000A5
:105490004FF498710844016889450AD107603800C3
:1054A00012D1D9F81C2068680121914088436860B6
:1054B00023E02869864205D33069484514BF7761E7
:1054C000376101E000F0DAF8BFB12869874212D3F2
:1054D000BE61D9F8101029B1814226BF39618F61B0
:1054E00000F0CCF8D9F8140038B12969884202D309
:1054F0007861876101E000F0C1F848F00100606068
:1055000044F80880686984420BD1C5F80880ADE092
:1055100040084000C9F8040048F00100606044F809
:1055200008804FEAD807202F22D205EBC70000F1F0
:1055300028094E46B8F1100F38BF00F09FF82868D0
:1055400020FA07F1C90704D40121B94008432860B3
:1055500007E0D9F80800296988422CBF064600F008
:105560008DF8C9F80840F460A660C4F80C907DE09E
:105570005FEA182008BF002123D0B0F5803F28BF84
:105580001F211ED2A0F58071090C01F0080188408E
:10559000A0F58052120C02F004029040A0F5804366
:1055A0001B0CC1F10E0103F00203891AC91A9840BD
:1055B00001EBD030C11D28FA01F202F0010101EB2C
:1055C000400105EB81004FF49872104400226261A3
:1055D0002261E1616A6822FA01F3DB0706D4012344
:1055E00003FA01F11143696004601CE000681F299F
:1055F0001DBF4908C1F1190108FA01F1414600E057
:1056000010464268D208D200424510D0CA0F00EBC3
:10561000820202F1100349001A68002AF0D12969B8
:105620008B4211D31C60A061E460A4600EE02A6983
:105630008168904228BF914206D3CC608460E060CC
:10564000A1600020A06101E000F018F8286A401E67
:1056500028620BD1D5F8C80100E080680028FCD191
:105660004FF0FF30286201E000F008F8C046C04665
:10567000BDE8F087E8B90020ACC10020012000F0AF
:105680001BB80268531C0360117070470749086813
:1056900008B1002070470648C008C00008600549EE
:1056A000C908C900091A0160704700BFA8C20020DC
:1056B0009F820020988A002080B500F007F8024AF7
:1056C00011001820ABBEFBE72600020080B500F0F9
:1056D00033F802000023DB431068984204D0110025
:1056E0000220ABBE002010605068984204D0111D0B
:1056F0000220ABBE0020506001BD000010B584B098
:10570000040000F019F8A100421810680021C943F4
:1057100088420DD107A00090002C01D1002000E0AC
:10572000042001900320029069460120ABBE106066
:1057300004B010BD3A747400004870471002002095
:1057400070B582B0040000252078C00640F1D380F7
:10575000DFF88009006810F00C0F7DD1DFF87009C8
:105760000068800704D5A069002801D101200AE360
:10577000DFF85C090068000705D5DFF85409006808
:1057800010F0F00005E0DFF8F4090068000910F0FF
:10579000F000216A884224D2206A00F09FFC002891
:1057A00001D00120EFE2DFF82809006850F008007E
:1057B000DFF81C190860DFF81809006830F0F00005
:1057C000216A0843DFF808190860DFF8B4090068A7
:1057D00030F47F40E16950EA0120DFF8A419086045
:1057E00023E0DFF8EC08006850F00800DFF8E0186C
:1057F0000860DFF8DC08006830F0F000216A084338
:10580000DFF8CC180860DFF87809006830F47F40D2
:10581000E16950EA0120DFF868190860206A00F0A9
:105820005DFC002801D00120ADE200F0A0FBDFF814
:10583000A4180968DFF84C2911F0F0015FF07063DB
:10584000B3FA83F3D940515CC840DFF82C190860E3
:105850000F2000F0A9FC4EE0A069002834D0DFF84A
:105860007008006850F00100DFF86418086000F06C
:10587000AFFC0500DFF858080068800706D400F088
:10588000A7FC401B0328F5D303207CE2DFF8400887
:10589000006850F00800DFF838180860DFF83008BA
:1058A000006830F0F000216A0843DFF8241808602F
:1058B000DFF8CC08006830F47F40E16950EA01204D
:1058C000DFF8BC18086016E0DFF80408006840083C
:1058D0004000DFF8FC17086000F07AFC0500DFF8F4
:1058E000F0070068800706D500F072FC401B032813
:1058F000F5D3032047E22078C00771D5DFF8D4073D
:10590000006810F00C0008280DD0DFF8C807006808
:1059100010F00C000C2810D1DFF8BC07006810F064
:105920000300032809D1DFF8A8070068800357D5D2
:105930006068002854D1012025E26068B0F5803FFE
:1059400008D1DFF88C07006850F48030DFF880174A
:10595000086024E06068B0F5A02F10D1DFF8700770
:10596000006850F48020DFF868170860DFF86007EF
:10597000006850F48030DFF8581708600FE0DFF857
:105980005007006830F48030DFF844170860DFF813
:105990004007006830F48020DFF834170860606842
:1059A00000280ED000F014FC0500DFF82407006882
:1059B000800315D400F00CFC401B6528F5D30320B0
:1059C000E1E100F005FC0500DFF804070068800352
:1059D00006D500F0FDFB401B6528F5D30320D2E17E
:1059E000207880076FD5DFF8EC06006810F00C0017
:1059F00004280DD0DFF8DC06006810F00C000C283D
:105A000020D1DFF8D406006810F00300022819D175
:105A1000DFF8BC060068400504D5E068002801D125
:105A20000120B0E1DFF858070068F821B1FA81F1F0
:105A300030F0F850226912FA01F10843DFF84017FC
:105A4000086040E0E068002826D0DFF8840600689F
:105A500050F48070DFF87816086000F0B9FB05009C
:105A6000DFF86C060068400506D400F0B1FB401B6F
:105A70000328F5D3032086E1DFF804070068F82146
:105A8000B1FA81F130F0F850226912FA01F10843BD
:105A9000DFF8EC16086016E0DFF83406006830F432
:105AA0008070DFF82C16086000F092FB0500DFF82C
:105AB00020060068400506D500F08AFB401B03283D
:105AC000F5D303205FE12078000730D56069002816
:105AD00016D0DFF8A806006850F00100DFF89C1629
:105AE000086000F075FB0500DFF89006006880078D
:105AF0001DD400F06DFB401B0328F5D3032042E1C9
:105B0000DFF87806006840084000DFF8701608608B
:105B100000F05EFB0500DFF864060068800706D52C
:105B200000F056FB401B0328F5D303202BE120781F
:105B3000400740F193800026DFF84C060068C00063
:105B400010D4DFF84406006850F08050DFF83816B3
:105B50000860DFF83406006810F08050009000986C
:105B600001200600DFF824060068C00516D4DFF81F
:105B70001C06006850F48070DFF81016086000F012
:105B800027FB0500DFF804060068C00506D400F016
:105B90001FFB401B0328F5D30320F4E0A068012875
:105BA00008D1DFF8EC05006850F00100DFF8E015DF
:105BB000086023E0A068052810D1DFF8D40500684C
:105BC00050F00400DFF8C8150860DFF8C40500686D
:105BD00050F00100DFF8B81508600FE0DFF8B005FD
:105BE000006840084000DFF8A8150860DFF8A0054D
:105BF000006830F00400DFF898150860A0680028FD
:105C000010D000F0E5FA0500DFF884050068800791
:105C100019D400F0DDFA401B41F289318842F3D3F8
:105C20000320B0E000F0D4FA0500DFF86405006856
:105C3000800708D500F0CCFA401B41F28931884238
:105C4000F3D303209FE0F6B2012E07D1DFF8380529
:105C5000006830F08050DFF830150860A06A002836
:105C600000F09080DFF86C04006810F00C000C2845
:105C700000F08680A06A022850D1DFF85404006842
:105C800030F08070DFF84814086000F0A1FA0500D9
:105C9000DFF83C040068800106D500F099FA401B4B
:105CA0000328F5D303206EE0206B401E616B0902D0
:105CB00051EA0010A16B090950EA4140E16A08432A
:105CC000E16B891E0905490D49050843216C891EB0
:105CD000090611F07E410843DFF8FC130860DFF885
:105CE000F003006850F08070DFF8E4130860DFF81C
:105CF000E803006850F08070DFF8DC13086000F003
:105D000067FA0500DFF8C803006880013AD400F0A4
:105D10005FFA401B0328F5D3032034E0DFF8B0031B
:105D2000006830F08070DFF8A8130860DFF8A00387
:105D3000006800010CD4DFF898030068800007D4E5
:105D4000DFF89403006880088000DFF88C13086097
:105D5000DFF884030068DFF83C140840DFF87813AC
:105D6000086000F035FA0500DFF864030068800180
:105D700008D500F02DFA401B0328F5D3032002E0DC
:105D8000012000E0002076BD70B504000D00002663
:105D9000DFF80404006810F00700A84211D2DFF811
:105DA000F8030068C008C0002843DFF8EC1308605F
:105DB000DFF8E403006810F00700A84201D00120DA
:105DC000D4E02078800709D5DFF80803006830F0B8
:105DD000F000A1680843DFF8FC1208602078C007D3
:105DE00079D56068022806D1DFF8E40200688003F4
:105DF0001CD40120BAE06068032806D1DFF8D00285
:105E00000068800112D40120B0E06068002806D14B
:105E1000DFF8BC020068800708D40120A6E0DFF8A4
:105E2000B0020068400501D401209FE0DFF8A40221
:105E300000688008800061680843DFF898120860F5
:105E400000F0C6F90600606802280FD1DFF884026E
:105E5000006810F00C0008283DD000F0B9F9801B54
:105E600041F289318842F1D303207FE06068032842
:105E70000FD1DFF86002006810F00C000C282AD067
:105E800000F0A6F9801B41F289318842F1D303204A
:105E90006CE0606800280ED1DFF83802006810F06E
:105EA0000C0F18D000F094F9801B41F28931884220
:105EB000F2D303205AE0DFF81C02006810F00C0057
:105EC000042808D000F084F9801B41F2893188420F
:105ED000F1D303204AE0DFF8C002006810F00700A9
:105EE000854211D2DFF8B0020068C008C000284324
:105EF000DFF8A4120860DFF8A002006810F00700C5
:105F0000A84201D0012031E02078400709D5DFF810
:105F1000C401006830F4E060E1680843DFF8B411C0
:105F20000860207800070AD5DFF8A801006830F47F
:105F30006050216950EAC100DFF89811086000F054
:105F400016F8DFF890110968DFF8382211F0F00137
:105F50005FF07063B3FA83F3D940515CC840DFF857
:105F6000181208600F2000F01FF9002070BDF0B477
:105F7000002100220023022402250020554E36680D
:105F800016F00C0F0BD0534E366816F00C060C2E84
:105F90002AD1514E366816F00306012E24D14C4EFC
:105FA000366836070BD4DFF8D461366816F47066AD
:105FB0005FF47007B7FA87F7FE40310009E0444EFE
:105FC000366816F0F0065FF07067B7FA87F7FE40A4
:105FD0003100DFF8C86156F821103E4E366816F0E1
:105FE0000C0F14D1080012E03A4E366816F00C0679
:105FF000042E03D1DFF8A861300008E0354E366882
:1060000016F00C06082E02D1DFF898613000314EF0
:10601000366816F00C060C2E55D12F4E366816F049
:10602000030633002C4E366816F070065FF060678A
:10603000B7FA87F7FE40761C35001E00022E02D00C
:10604000032E12D022E0244E3668DFF85471B7FBDD
:10605000F5F716F4FE465FF47E0CBCFA8CFC36FABB
:106060000CF606FB07F632001FE01B4E36684D4F5C
:10607000B7FBF5F716F4FE465FF47E0CBCFA8CFC19
:1060800036FA0CF606FB07F632000EE0124E3668C2
:10609000B1FBF5F716F4FE465FF47E0CBCFA8CFCFF
:1060A00036FA0CF606FB07F632000B4E366816F091
:1060B000C0666027B7FA87F7FE40761C760034008A
:1060C000B2FBF4F63000F0BC70472B480068704714
:1060D00000100240081002400C10024070B582B05F
:1060E00004000025002628480068C00003D500F001
:1060F00075F8050014E02448006850F080502249EB
:1061000008602148006810F080500090009800F06E
:1061100065F805001C48006830F080501A49086096
:10612000B5F5007F09D1812C15D3A12C02D3022013
:10613000060010E0012006000DE0812C02D30320B0
:10614000060008E0802C02D10220060003E0702C3B
:1061500001D10120060010480068C008C00030438B
:106160000D4908600C48006810F00700B04201D0EB
:10617000012000E0002076BD2C0100209410024098
:1061800004100240342701085810024000700040FB
:1061900090100240FFFFEEFE00200240082501089B
:1061A0000024F40000127A0010B5040007480068CB
:1061B0004FF47A71B0FBF1F000F0BCF8002221003E
:1061C0005FF0FF3000F095F8002010BD2C0100209A
:1061D00001480068704700BF88C20020DFF81C003B
:1061E000006810F4C0607047DFF81400006850F4D5
:1061F0000070DFF80C10086070470000007000406D
:106200000470004055480068C0F302207047012127
:1062100010F01F029140524A40B2430942F8231045
:106220007047012110F01F0291404E4A40B24309CD
:1062300042F823107047012110F01F0291404A4A92
:1062400040B2430942F823107047012110F01F02A9
:106250009140464A40B2430942F82310704710B4B7
:1062600040B2002808D50A01414B40B210F00F049B
:10627000234403F8042C03E00A013E4B40B21A54B5
:1062800010BC704770B4030013F00704D4F1070684
:10629000052E01D3042001E0D4F10700261D072EAE
:1062A00001D2002500E0E51E012616FA00F0401E8E
:1062B0000840A8400121A940491E1140084370BC74
:1062C000704710B50400601EB0F1807F01D301203B
:1062D0000EE0601E284908600F215FF0FF30FFF7D5
:1062E000BEFF0020254908600720254908600020DE
:1062F00010BDF8B504000D0016000027FFF782FF5F
:106300000700320029003800FFF7BCFF0100200021
:1063100040B2FFF7A4FFF1BD10B50400200040B269
:10632000FFF775FF10BD10B50400200040B2FFF765
:1063300078FF10BD10B504002000FFF7C2FF10BDAC
:1063400010B50400200040B2FFF775FF10BD10B576
:106350000400200040B2FFF778FF10BD0CED00E014
:1063600000E100E080E100E000E200E080E200E027
:1063700018ED00E000E400E014E000E018E000E0C8
:1063800010E000E02DE9F04F83B0040025680026FE
:106390005FF0000B00275FF0000A002001905FF023
:1063A000000800200090DFF84C96206801F0F3F818
:1063B000002840F01C83206801F0A6F8002800F0B7
:1063C0001683206801F0A0F8800705D52068406991
:1063D00010F0020021684861206801F095F8000380
:1063E00040F1868000208246206801F094F88346C0
:1063F000BBF1000F7CD05FEACB7074D55146C9B2B7
:10640000206801F09EF80700F80759D515EB4A10EF
:1064100010F530600121816015F53060806800045E
:1064200044D42069012826D11C2000FB0AF0204416
:10643000D0F8E80115EB4A1111F5306109694903FB
:10644000490B401A1C2101FB0AF12144C1F8F80153
:106450001C2000FB0AF02044D0F8EC011C2101FBB9
:106460000AF12144D1F8E81108441C2101FB0AF18A
:106470002144C1F8EC015146C9B2200001F0E1F815
:106480002069012812D1BAF1000F0FD11C2000FBA6
:106490000AF02044D0F8F401002807D14FF46270CC
:1064A00004EB00020121206801F09BF815F5306033
:1064B000806840F4004050F0200015F5306188609D
:1064C000380708D5200001F0B1F815EB4A1010F597
:1064D000306008218160F80605D515EB4A1010F5EB
:1064E0003060102181601AF1010A5FEA5B0B7FE7DF
:1064F000206801F009F840037DD5206801F016F806
:10650000834600208246BBF1000F74D05FEACB7057
:106510006CD55146C9B2206801F020F80700F80791
:106520003ED5012010FA0AF0019015F50060406B8D
:106530000199884315F50061486315EB4A1010F581
:10654000106001218160206901280FD11C2000FB0F
:106550000AF02044806C1C2101FB0AF12144496CA3
:1065600008441C2101FB0AF1214488645146C9B248
:10657000200001F077F82069012811D1BAF1000F4D
:106580000ED11C2000FB0AF02044006D002807D12A
:106590004FF4627004EB00020121206801F021F841
:1065A000380705D515EB4A1010F5106008218160F9
:1065B000F80605D515EB4A1010F510601021816022
:1065C000780605D515EB4A1010F510604021816062
:1065D000B80705D515EB4A1010F51060022181604F
:1065E000380603D55146200000F064FB1AF1010A79
:1065F0005FEA5B0B87E7206800F086FF00281CD568
:1066000015F5006040684008400015F500614860DD
:1066100094F8B803012807D1002084F8B8030021BA
:10662000200001F0DDF802E0200001F045F82068CC
:10663000406910F0004021684861206800F064FF64
:1066400000050DD515F500608068C00702D5200053
:1066500001F02BF82068406910F40060216848615F
:10666000206800F051FF00011AD52068406910F041
:1066700000602168486194F8B80300280DD101201A
:1066800084F8B8032068406DC0F38300C4F8BC03ED
:106690000121200001F0A4F802E0200001F005F83B
:1066A000206800F031FFC00468D515F5006040682F
:1066B0004008400015F5006148600021206800F0A6
:1066C0005FFB00200600606886420DD215EB461085
:1066D00010F51060FF21816015EB461010F5306059
:1066E000FF218160761CEEE75FF0FF3015F5006159
:1066F000886115F50060C06950F0011015F5006162
:10670000C861206B002812D015F50060D0F8840015
:1067100050F00B0015F50061C1F8840015F500601C
:10672000406C50F00B0015F5006148640FE015F562
:106730000060406950F00B0015F50061486115F5E7
:106740000060006950F00B0015F50061086115F557
:106750000060006830F4FE6015F5006108604FF4D9
:10676000627004EB00022169C9B2206800F039FFB1
:106770002068406910F4805021684861206800F06A
:10678000C3FE800440F19480206800F008FF206878
:10679000C06830F470502168C8600320E060402079
:1067A0006061FFF792FC81469348814509D3934885
:1067B000814506D22068C06850F470502168C860D6
:1067C0006DE08E48814509D38D48814506D2206809
:1067D000C06850F460502168C86060E08848814516
:1067E00009D38848814506D22068C06850F45050CB
:1067F0002168C86053E08348814509D382488145B8
:1068000006D22068C06850F440502168C86046E055
:106810007D48814509D37D48814506D22068C068FE
:1068200050F430502168C86039E07848814509D378
:106830007748814506D22068C06850F4205021680E
:10684000C8602CE07248814509D37248814506D260
:106850002068C06850F410502168C8601FE06D487F
:10686000814509D36C48814506D22068C06850F440
:1068700000502168C86012E06748814509D3674825
:10688000814506D22068C06850F4E0502168C86095
:1068900005E02068C06850F4C0502168C86020003E
:1068A00000F0F7FE2068406910F40050216848614C
:1068B000206800F029FEC00649D52068806930F0C4
:1068C000100021688861286A804618F00F001C219A
:1068D000484320444FF4F07108440090C8F343400B
:1068E00002281BD147F6F07018EA000F29D0C8F330
:1068F0000A1292B20098C168280000F03FFD00988B
:10690000C068C8F30A1108440099C86000988069FB
:10691000C8F30A1108180099886112E0C8F34340CF
:1069200006280ED108224FF4627004EB0001280003
:1069300000F024FD00988069C8F30A110818009936
:1069400088612068806950F01000216888612068A3
:1069500000F0DAFD000708D5200000F093FE206863
:10696000406910F0080021684861206800F0CCFD03
:10697000C0020AD55146C9B2200000F0AEFE206820
:10698000406910F4801021684861206800F0BCFD67
:1069900080020AD55146C9B2200000F094FE20685A
:1069A000406910F4001021684861206800F0ACFDD7
:1069B000400008D5200000F09AFE2068406910F0E1
:1069C000804021684861206800F09EFD40070ED598
:1069D0002068406880465FEA487002D5200000F0D9
:1069E0008DFE2068406858EA000021684860BDE8D4
:1069F000F78F000000B4C404C0ACD800C0E1E400CC
:106A00000024F40080730601A0491A01002D310111
:106A100040A44C0100366E0120ABA6010048E801FD
:106A200038B504000D0094F88403012801D1022038
:106A30000DE0012084F8840384F838502900C9B29D
:106A4000206800F04BFD002084F88403002032BD54
:106A50002DE9F84304000D0016001F005FF0000848
:106A60005FF00009EDB2280608D5EDB215F07F0001
:106A70001C21484320443C30814609E0EDB215F02A
:106A80007F001C21484320444FF4F07108448146A4
:106A900015F07F0089F800002800C0B2C00989F80D
:106AA0000100B6B2C9F8086089F8037094F884034D
:106AB000012801D102200BE0012084F8840349461B
:106AC000206800F06FF9002084F884034046C0B2CB
:106AD000BDE8F2832DE9F04104000D0016001F000F
:106AE0005FF00008EDB215F07F001C214843204400
:106AF0004FF4F07108448046C8F80C60C8F8147070
:106B00000020C8F81800002088F8010015F07F0068
:106B100088F8000094F88403012801D1022016E0CF
:106B2000012084F884037F20054206D12269D2B275
:106B30004146206800F024FB05E02269D2B24146BC
:106B4000206800F091F9002084F884030020BDE85B
:106B5000F0812DE9F04104000D0016001F005FF0E8
:106B60000008EDB215F07F001C21484320443C3062
:106B70008046C8F80C60C8F814700020C8F81800E7
:106B8000012088F8010015F07F0088F8000094F8D3
:106B90008403012801D1022016E0012084F8840337
:106BA0007F20054206D12269D2B24146206800F01A
:106BB000E7FA05E02269D2B24146206800F054F9B4
:106BC000002084F884030020BDE8F08170B5040043
:106BD0000D000026EDB2280608D5EDB215F07F00B5
:106BE0001C21484320443C30060008E0EDB21C2044
:106BF00000FB05F020444FF4F0710844060001202A
:106C0000B07015F07F0030702800C0B2C0097070FD
:106C100094F88403012801D1022016E0012084F8B1
:106C200084033100206800F0BFFB7F20054208D1BB
:106C30004FF4627004EB00022169C9B2206800F0D1
:106C4000D0FC002084F88403002070BD70B50400DF
:106C50000D000026EDB2280608D5EDB215F07F0034
:106C60001C21484320443C30060008E0EDB21C20C3
:106C700000FB05F020444FF4F071084406000020AA
:106C8000B07015F07F0030702800C0B2C00970707D
:106C900094F88403012801D102200AE0012084F83D
:106CA00084033100206800F0CEFB002084F88403C8
:106CB000002070BD2DE9F04782B004000D00266869
:106CC00000275FF000085FF000095FF0000A1C2059
:106CD00000FB05F020443C3007007869B969401A90
:106CE0008046B868404501D2B868804618F1030074
:106CF000042190FBF1F0814616EB451010F5106071
:106D0000806980B2814529D2B8697969884225D2E3
:106D10007869002822D07869B969401A8046B86835
:106D2000404501D2B868804618F10300042190FB69
:106D3000F1F081462069C0B20090404603009BB24A
:106D40002A00D2B2F968300000F0FBFAF86840443B
:106D5000F860B86918EB0000B861CDE7B8F1010F31
:106D60000ADA0120A840824616F50060406B30EA3E
:106D70000A0016F5006148630020BDE8F6870000B0
:106D800002000023880150F0200010615B1CDFF836
:106D90009408834201D3032003E010698006F5D4F0
:106DA0000020704730B40200487801282ED112F537
:106DB0000060C069012391F90040A3409BB21843D1
:106DC00012F50063D861087812EB401010F51060DE
:106DD0000068000445D4087812EB401010F51060EC
:106DE0000B7812EB431313F510631B688C68640572
:106DF000640DCD7854EA85440D7854EA855444F006
:106E0000805454F40044234303602AE012F50060E8
:106E1000C069012391F90040A34050EA034012F5F4
:106E20000063D861087812EB401010F530600068FC
:106E3000000416D4087812EB401010F530600B787F
:106E400012EB431313F530631B688C686405640D03
:106E5000CD7854EA854444F0805454F400442343EC
:106E60000360002030BC7047F8B504000D00160028
:106E700000276878012840F0E480686900282AD15A
:106E8000287814EB401010F51060297814EB4111AC
:106E900011F5106109696FF3DC410161287814EB89
:106EA000401010F51060297814EB411111F51061B4
:106EB000096951F400210161287814EB401010F5A4
:106EC0001060297814EB411111F510610969C90CA2
:106ED000C904016162E0287814EB401010F51060DD
:106EE000297814EB411111F510610969C90CC90425
:106EF0000161287814EB401010F51060297814EB2C
:106F0000411111F5106109696FF3DC4101612878C5
:106F100014EB401010F51060297814EB411111F5B5
:106F2000106109696A69AB689A18521EAB68B2FBB6
:106F3000F3F2DFF8F43613EAC24211430161287814
:106F400014EB401010F51060297814EB411111F585
:106F5000106109696A695203520B11430161E878B3
:106F600001281BD1287814EB401010F51060297807
:106F700014EB411111F51061096931F0C041016153
:106F8000287814EB401010F51060297814EB4111AB
:106F900011F51061096951F000510161E87801288B
:106FA0000DD0686900280AD014F50060406B0121FB
:106FB00095F900209140084314F500614863E87892
:106FC000012821D114F500608068C0050ED428780E
:106FD00014EB401010F51060297814EB411111F5F5
:106FE0001061096851F0005101600DE0287814EB40
:106FF000401010F51060297814EB411111F5106163
:10700000096851F080510160287814EB401010F5A8
:107010001060297814EB411111F51061096851F0E5
:1070200004410160E878012840F0A8803000C0B237
:1070300000906B699BB22A78E968200000F081F922
:107040009CE0287814EB401010F53060297814EBA0
:10705000411111F530610969C90CC9040161287831
:1070600014EB401010F53060297814EB411111F544
:10707000306109696FF3DC410161686900281ED144
:10708000287814EB401010F53060297814EB41118A
:1070900011F530610969AA685203520B114301616D
:1070A000287814EB401010F53060297814EB41116A
:1070B00011F53061096951F4002101612BE0686923
:1070C000A9680818401EA968B0FBF1F007002878ED
:1070D00014EB401010F53060297814EB411111F5D4
:1070E00030610969BFB2DFF8402512EAC742114397
:1070F0000161287814EB401010F53060297814EB0A
:10710000411111F530610969AA68BFB27A4352038F
:10711000520B11430161E878012821D114F5006078
:107120008068C0050ED4287814EB401010F530604C
:10713000297814EB411111F53061096851F00051C3
:1071400001600DE0287814EB401010F530602978CC
:1071500014EB411111F53061096851F08051016063
:10716000287814EB401010F53060297814EB4111A9
:1071700011F53061096851F0044101600020F2BD51
:1071800030B403004878012840F08B80486900281B
:107190002AD1087813EB401010F510600C7813EB2F
:1071A000441414F5106424696FF3DC440461087816
:1071B00013EB401010F510600C7813EB441414F529
:1071C0001064246954F400240461087813EB40101F
:1071D00010F510600C7813EB441414F51064246956
:1071E000E40CE40404613FE0087813EB401010F570
:1071F00010600C7813EB441414F510642469E40C4B
:10720000E4040461087813EB401010F510600C786A
:1072100013EB441414F5106424696FF3DC44046127
:1072200088684C69A04201D288684861087813EBED
:10723000401010F510600C7813EB441414F5106432
:10724000246954F400240461087813EB401010F50D
:1072500010600C7813EB441414F5106424694D6924
:107260006D036D0B2C430461486900280AD013F5A7
:107270000060406B012491F90050AC40204313F5AD
:1072800000646063087813EB401010F510600C7810
:1072900013EB441414F51064246854F0044404609F
:1072A0004CE0087813EB401010F530600C7813EBCD
:1072B000441414F530642469E40CE404046108788F
:1072C00013EB401010F530600C7813EB441414F5F8
:1072D000306424696FF3DC4404614869002801D0FC
:1072E00088684861087813EB401010F530600C781E
:1072F00013EB441414F53064246954F4002404613D
:10730000087813EB401010F530600C7813EB441440
:1073100014F5306424698D686D036D0B2C43046192
:10732000087813EB401010F530600C7813EB441420
:1073300014F53064246854F004440460002030BC28
:107340007047F0B40400002500269BB2D81C042727
:1073500090FBF7F0050000200600AE420BD2086853
:10736000D2B24FF4805707FB024717F580573860B9
:10737000761C091DF1E70020F0BC704730B4030013
:107380000800002192B2D41C042594FBF5F40025DA
:107390002900A14206D213F580552D680560491CCD
:1073A000001DF6E730BC704702004878012824D160
:1073B000087812EB401010F51060006800280DD41A
:1073C000087812EB401010F510600B7812EB4313A5
:1073D00013F510631B6833F080430360087812EBE9
:1073E000401010F510600B7812EB431313F5106387
:1073F0001B6853F40013036023E0087812EB40107D
:1074000010F53060006800280DD4087812EB4010A9
:1074100010F530600B7812EB431313F530631B68E3
:1074200033F080430360087812EB401010F53060B1
:107430000B7812EB431313F530631B6853F40013FE
:1074400003600020704702004878012822D10878A4
:1074500012EB401010F510600B7812EB431313F58C
:1074600010631B6833F400130360C878032802D04C
:10747000C878022830D1087812EB401010F510605F
:107480000B7812EB431313F510631B6853F0805312
:10749000036021E0087812EB401010F530600B78A3
:1074A00012EB431313F530631B6833F400130360CE
:1074B000C878032802D0C87802280DD1087812EBCA
:1074C000401010F530600B7812EB431313F5306366
:1074D0001B6853F08053036000207047020012F5D0
:1074E0000060006830F4FE6012F50063186012F569
:1074F00000600068C9B20B0113F4FE63184312F573
:107500000063186000207047010000204A691000E5
:107510008A6910407047010011F5006292691000FD
:1075200011F50062D2691040000C7047010011F59E
:1075300000629269100011F50062D269104080B2B9
:1075400070470200C9B212EB411313F530639B6818
:10755000180012F500635B691840704730B40200F0
:1075600000200024002312F500652D692C0012F57F
:1075700000656D6B2B001D00CD40ED0115F0800501
:107580002C43C9B212EB411515F51065AD682540C5
:10759000280030BC7047406910F0010070470100BE
:1075A00011F510600068C00AC00211F51062106089
:1075B00011F50060806810F00600042807D111F56D
:1075C0001060006850F0030011F51062106011F5B2
:1075D0000060406850F4807011F500625060002037
:1075E000704710B40300002013F53064206113F5D8
:1075F0003060006950F4002013F53064206113F509
:107600003060006950F0180013F53064206113F504
:107610003060006950F0C04013F5306420610020F4
:1076200010BC7047410D03000000F81F10B50400A6
:107630004FF4627004EB0001D4F8C80300F0F6F8D0
:1076400010BD38B504000D00EDB21C2000FB05F0A4
:107650002044D0F8EC212900C9B2D4F8C80300F0C6
:1076600021F931BD38B504000D00EDB21C2000FB3E
:1076700005F02044826C2900C9B2D4F8C80300F098
:1076800059F931BD10B50400D4F8C80300F0FBF976
:1076900010BD10B50400D4F8C80300F0BCF90121F6
:1076A000D4F8C80300F0DAF910BD10B50400D4F81E
:1076B000C80300F0D7F910BD10B50400D4F8C80312
:1076C00000F0DAF910BD38B504000D002900C9B288
:1076D000D4F8C80300F0ECF931BD38B504000D0052
:1076E0002900C9B2D4F8C80300F0DFF931BD10B5E4
:1076F0000400D4F8C80300F0DEF910BD10B5040092
:10770000D4F8C80300F0DAF910BDF8B504000D0094
:1077100016001F003300DBB23A0092B22900C9B252
:10772000D4F82002FFF794F90020F2BD38B5040028
:107730000D002900C9B2D4F82002FFF747FA002053
:1077400032BD38B504000D002900C9B2D4F82002BA
:10775000FFF77CFA002032BD0200D2F82002C9B245
:107760000B0608D5C9B211F07F011C235943084408
:1077700090F83E0007E0C9B211F07F011C23594385
:10778000084490F8E201704738B504000D00290064
:10779000C9B2D4F82002FFF743F9002032BDF8B592
:1077A00004000D0016001F00BFB23B00320029008C
:1077B000C9B2D4F82002FFF7CCF90020F2BDF8B529
:1077C00004000D0016001F00BFB23B00320029006C
:1077D000C9B2D4F82002FFF77DF90020F2BD000005
:1077E000704701000020704770B504000D000226AC
:1077F000D4F8140200280AD02900C9B22000D4F815
:10780000142212689047002801D1002006003000A1
:10781000C0B270BD38B504000D002900C9B2200007
:10782000D4F8142252689047002032BD38B50400C5
:107830000D0029004FF40270204400F031FC0120BB
:10784000C4F8F401B4F80E02C4F8F80194F8080280
:1078500010F01F00C0B2002803D0022811D008D3B6
:1078600017E04FF4027004EB0001200000F034F93F
:1078700016E04FF4027004EB0001200000F06AF9FA
:107880000EE04FF4027004EB0001200000F088F9D4
:1078900006E094F8080210F080012000FFF746FF90
:1078A000002032BDF8B504000D001600EDB2002D29
:1078B0002ED14FF4827020440700D4F8F40103283D
:1078C00036D1F868B968884210D2B868F968401AA9
:1078D000B860B868F968884201D2BA6800E0FA680E
:1078E00092B23100200000F01CFC21E0D4F8140218
:1078F0000069002808D094F8FC01032804D1200076
:10790000D4F8141209698847200000F017FC0FE032
:10791000D4F81402806900280AD094F8FC010328E6
:1079200006D12900C9B22000D4F8142292699047E8
:107930000020F2BDF8B504000D001600EDB2002DD8
:1079400057D114F114000700D4F8F401022845D1EE
:10795000F868B968884210D2B868F968401AB86007
:10796000BA6892B23100200000F0CEFB0023002262
:1079700000212000FFF723FF30E07868F968B0FBB2
:10798000F1F201FB1200002817D17868F9688842EB
:1079900013D37868D4F8F81188420ED2002200215F
:1079A000200000F0B1FB0020C4F8F8010023002201
:1079B00000212000FFF703FF10E0D4F81402C06894
:1079C000002808D094F8FC01032804D12000D4F842
:1079D0001412C9688847200000F0BDFB94F800022B
:1079E000012816D12000FFF7FCFE002084F80002D9
:1079F0000FE0D4F81402406900280AD094F8FC0182
:107A0000032806D12900C9B22000D4F814225269F3
:107A100090470020F2BD10B5040040230022002151
:107A20002000FFF772FE4020C4F81001402300221E
:107A300080212000FFF769FE40202062012084F8A9
:107A4000FC01D4F81802002806D06168C9B22000F1
:107A5000D4F8142252689047002010BD020011741F
:107A600000207047010091F8FC0181F8FD0104201D
:107A700081F8FC0100207047010091F8FD0181F8B8
:107A8000FC010020704710B5040094F8FC010328A5
:107A900009D1D4F81402C069002804D02000D4F819
:107AA0001412C9698847002010BD020000207047E9
:107AB00002000020704701000020704710B504004C
:107AC000012084F8FC016168C9B22000D4F81422B6
:107AD00052689047002010BD70B504000D000026CC
:107AE0006878002820D0012828D0032821D0052834
:107AF0000BD0062804D0082811D009280AD022E08B
:107B00002900200000F006F921E02900200000F003
:107B1000B3F91CE02900200000F0DEF917E029008D
:107B2000200000F049FA12E02900200000F06AFA73
:107B30000DE02900200000F083FA08E02900200071
:107B400000F091FA03E02900200000F0BDFA3000B7
:107B5000C0B270BD70B504000D00002694F8FC01A1
:107B6000032817D1287902280FDA29002000D4F839
:107B7000142292689047E88800280AD1F6B2002EB5
:107B800007D1200000F0DAFA03E02900200000F01D
:107B90009BFA03E02900200000F096FA002070BD57
:107BA0002DE9F04104000D000027A8880600287880
:107BB00010F06000202807D129002000D4F81422FA
:107BC000926890470020A3E06878002861D00128DF
:107BD00032D0032840F09A8094F8FC01022802D0A9
:107BE00003280CD023E0F6B2002E07D0F6B2802E88
:107BF00004D03100C9B22000FFF798FD1BE068886F
:107C000000280AD1F6B2002E07D0F6B2802E04D09A
:107C10003100C9B22000FFF789FD29002000D4F807
:107C2000142292689047200000F088FA03E02900AF
:107C3000200000F049FA69E094F8FC01022802D023
:107C400003280CD020E0F6B2002E07D0F6B2802E2A
:107C500004D03100C9B22000FFF768FD18E0688841
:107C6000002810D17F2006420AD03100C9B220007E
:107C7000FFF767FD29002000D4F81422926890478E
:107C8000200000F05BFA03E02900200000F01CFA5D
:107C90003CE094F8FC01022802D0032809D030E02F
:107CA0007F20064204D03100C9B22000FFF73EFD1C
:107CB0002BE0F6B2300607D5F6B216F07F000001D1
:107CC000204410F1140808E0F6B216F07F0000011D
:107CD00020444FF4827100EB01083100C9B220004A
:107CE000FFF73AFD002803D00120C8F8000002E0A9
:107CF0000020C8F8000002224146200000F0F0F900
:107D000003E02900200000F0DFF9FFE73800C0B2EF
:107D1000BDE8F08170B582B004000D00688880B2C3
:107D2000000AC0B2012808D002280ED0032821D0B2
:107D3000062861D007286ED07EE06946207CD4F802
:107D400010221268904706007BE0207C002808D1B2
:107D50006846D4F81412896A8847060002207070B9
:107D600007E06846D4F81412C96A88470600022062
:107D7000707066E0A878002808D0022816D00DD3CD
:107D8000042823D01AD3052828D02FE06946207C68
:107D9000D4F810225268904706002CE06946207CF7
:107DA000D4F8102292689047060024E06946207CAF
:107DB000D4F81022D268904706001CE06946207C67
:107DC000D4F8102212699047060014E06946207C1E
:107DD000D4F810225269904706000CE06946207CD6
:107DE000D4F8102292699047060004E02900200090
:107DF00000F06AF93FE024E0207C002806D16846C4
:107E0000D4F81412496B884706001AE029002000B4
:107E100000F05AF92FE0207C002808D16846D4F8F9
:107E20001412096B884706000720707009E02900CA
:107E3000200000F049F91EE02900200000F044F97C
:107E400019E0BDF80000002815D0E888002812D0FD
:107E5000BDF80000E988884204D2BDF80000ADF802
:107E6000000002E0E888ADF80000BDF80020310015
:107E7000200000F035F973BD70B504000D00A8882E
:107E8000002824D1E888002821D1A87810F07F00AC
:107E9000060094F8FC01032804D12900200000F01A
:107EA00013F918E084F8FE613100C9B22000FFF731
:107EB0006BFC200000F042F9F6B2002E03D0022045
:107EC00084F8FC0107E0012084F8FC0103E02900AC
:107ED000200000F0F9F870BD38B504000D00688886
:107EE0003449087033480078022804DB2900200058
:107EF00000F0EAF85CE094F8FC01022802D00328C4
:107F00001ED051E02B480078002815D02948007871
:107F10006060032084F8FC01264801782000FFF708
:107F200063FC022804D12900200000F0CDF83FE0D6
:107F3000200000F003F902E0200000F0FFF837E035
:107F40001C48007800280ED1022084F8FC01194852
:107F500000786060174801782000FFF75BFC200084
:107F600000F0ECF81FE0134800786168884217D0F1
:107F70006168C9B22000FFF74DFC0E4800786060D0
:107F80000C4801782000FFF72FFC022804D12900BB
:107F9000200000F099F80BE0200000F0CFF802E09C
:107FA000200000F0CBF803E02900200000F08CF85E
:107FB00031BD0000C0C2002038B504000D00E888C3
:107FC000012804D02900200000F07EF819E094F880
:107FD000FC01022802D0032809D00EE00020A06096
:107FE000012214F10801200000F07AF809E00122D2
:107FF000211D200000F074F803E02900200000F0AB
:1080000063F831BD38B504000D0094F8FC01801E02
:10801000012810D80120E060D4F80402002803D021
:10802000E06850F00200E060022214F10C01200030
:1080300000F056F803E02900200000F045F831BDBB
:1080400038B504000D00688801280BD10120C4F860
:10805000040229002000D4F81422926890472000DE
:1080600000F06CF831BD38B504000D0094F8FC0147
:10807000801E01280FD8688801280BD10020C4F881
:10808000040229002000D4F81422926890472000AE
:1080900000F054F803E02900200000F015F831BD8D
:1080A0000A7802704A7842708A78CB781B029A1854
:1080B00042800A794B791B029A1882808A79CB799F
:1080C0001B029A18C280704738B504000D00802149
:1080D0002000FFF72BFB00212000FFF727FB31BD1D
:1080E00070B504000D0016000220C4F8F401B6B209
:1080F000A661B6B2E66133009BB22A0000212000DF
:10810000FFF74DFB002070BD70B504000D00160098
:1081100033009BB22A0000212000FFF740FB002023
:1081200070BD70B504000D00160033009BB22A002C
:1081300000212000FFF743FB002070BD10B50400B4
:108140000420C4F8F4010023002200212000FFF7DE
:1081500026FB002010BD10B504000520C4F8F40172
:108160000023002200212000FFF729FB002010BD82
:1081700010B586B00400DFF83809006850F0805070
:10818000DFF82C190860DFF82809006810F080502B
:1081900000900098FEF728F8E4B2002C0ED1DFF82A
:1081A0001409006850F04000DFF808190860DFF893
:1081B0000409006810F0400000900098E4B2012C1F
:1081C0000ED1DFF8F008006850F00100DFF8E41885
:1081D0000860DFF8E008006810F0010000900098E7
:1081E000DFF8D408E4B250F8240001900120029096
:1081F000002003900220049001A9DFF8C008E4B237
:1082000050F8240000F06EFC06B010BD80B500F000
:1082100070FB002801D0012000E0002002BD00B565
:1082200087B0DFF89C0800F07DFF002840F08D80CB
:10823000DFF87C08006850F48040DFF874180860AC
:10824000DFF86C08006810F4804000900098DFF8B8
:108250006408006850F00200DFF858180860DFF882
:108260005408006810F00200009000984FF400409D
:108270000190022002900120039003200490052029
:10828000059001A9DFF83C0800F02CFC4FF40050E9
:1082900001900120039001A9DFF8280800F022FCDA
:1082A000DFF82408DFF8181808604FF48270DFF850
:1082B000101848604FF40040DFF8041888604FF44D
:1082C000E060DFF8FC17C8600220DFF8F4170861EF
:1082D0000120DFF8EC1748614FF40070DFF8E01779
:1082E00088611820DFF8D817C8610020DFF8D017A0
:1082F00008620020DFF8C81748620020DFF8C017C6
:1083000088620720DFF8B817C8620020DFF8B017CE
:1083100008630020DFF8A8174863DFF8A40700F01F
:1083200019FDDFF89C070068006850F48040DFF812
:10833000901709680860DFF888070068006850F047
:108340004000DFF87C1709680860002007B000BD16
:1083500000B587B001224FF48051DFF8680700F0C4
:10836000C6FC01221021DFF8640700F0C0FC0122E6
:108370000221DFF8500700F0BAFC012208215FF06B
:10838000904000F0B4FC03200490002003900120F2
:108390000290DFF82007006850F00200DFF81417A1
:1083A0000860DFF81007006810F0020000900098E5
:1083B0004FF48050019001A9DFF8080700F092FB0C
:1083C00001224FF48051DFF8FC0600F090FCDFF84A
:1083D000E406006850F00400DFF8D8160860DFF803
:1083E000D406006810F0040000900098102001905E
:1083F00001A9DFF8D80600F075FB01221021DFF893
:10840000CC0600F074FCDFF8AC06006850F0020007
:10841000DFF8A0160860DFF89C06006810F0020084
:10842000009000980220019001A9DFF8980600F062
:1084300059FB01220221DFF88C0600F058FCDFF81E
:108440007406006850F00100DFF868160860DFF875
:108450006406006810F00100009000980820019068
:1084600001A95FF0904000F03DFB012208215FF080
:10847000904000F03CFC002007B000BD30B587B054
:1084800004002500032004900020039001200290A6
:10849000E878002805D002283FD021D3032859D0FE
:1084A00075E0DFF81006006850F00200DFF80416EF
:1084B0000860DFF80006006810F0020000900098E5
:1084C0004FF48050019001224FF48051DFF8F40501
:1084D00000F00DFC01A9DFF8EC0500F003FB58E00B
:1084E000DFF8D005006850F00400DFF8C815086018
:1084F000DFF8C005006810F004000090009810201C
:10850000019001221021DFF8C40500F0F0FB01A961
:10851000DFF8B80500F0E6FA3BE0DFF89805006800
:1085200050F00200DFF88C150860DFF8880500685D
:1085300010F0020000900098022001900122022118
:10854000DFF8800500F0D3FB01A9DFF8780500F023
:10855000C9FA1EE0DFF85C05006850F00100DFF8A2
:1085600054150860DFF84C05006810F00100009019
:10857000009808200190012208215FF0904000F04F
:10858000B6FB01A95FF0904000F0ACFA01E00320D7
:1085900000E0002007B030BD2DE9F041040088461E
:1085A00015001E0027007878002810D1B6B2022EE0
:1085B00004DB3878BC2801D158F0800833009BB226
:1085C0002A004146C9B2200000F01CF818E0787873
:1085D000012814D1B6B2022E08DB3878332802D035
:1085E000402803D002E058F04008FFE733009BB278
:1085F0002A004146C9B2200000F056F800E00120F0
:10860000BDE8F081F8B504000D0016001F003B0026
:108610009BB232002900C9B2A07800F093F9F2BDF4
:108620002DE9F0410400884615001E0027007878E7
:10863000002810D1B6B2022E04DB3878BC2801D154
:1086400058F0800833009BB22A004146C9B220008E
:1086500000F01CF818E07878012814D1B6B2022E88
:1086600008DB3878332802D0402803D002E058F0E5
:108670004008FFE733009BB22A004146C9B2200000
:1086800000F03BF800E00120BDE8F081F8B50400FF
:108690000D0016001F003B009BB232002900C9B23A
:1086A000A07800F07BF9F2BD2DE9F04104000D0047
:1086B00016001F00200000F06CF82900C9B2DFF896
:1086C000000400F006F9002080464046C0B23900A0
:1086D00080B289B288420AD25FFA88F816F8081088
:1086E000DFF8DC0300F0F5F818F10108EDE72000F1
:1086F00000F079F80020BDE8F081F8B504000D0025
:1087000016001F00200000F044F855F08001C9B2A7
:10871000DFF8AC0300F0DDF8DFF8A40300680068C0
:1087200030F04000DFF8981309680860DFF8900324
:108730000068006830F48040DFF88413096808603E
:10874000BFB2022F07D33A0092B23100DFF87003B4
:1087500000F092F804E03100DFF8640300F06EF8F6
:10876000200000F040F8DFF858030068006850F47B
:108770008040DFF84C1309680860DFF844030068A4
:10878000006850F04000DFF83813096808600020E6
:10879000F2BD38B504002500E878002805D002288D
:1087A00012D00AD3032816D01BE000224FF48051C8
:1087B000DFF8100300F09BFA13E000221021DFF82D
:1087C0000C0300F094FA0CE000220221DFF8F4021E
:1087D00000F08DFA05E0002208215FF0904000F0E3
:1087E00086FA002032BD38B504002500E87800285C
:1087F00005D0022812D00AD3032816D01BE001228C
:108800004FF48051DFF8BC0200F071FA13E001224E
:108810001021DFF8B80200F06AFA0CE00122022110
:10882000DFF8A00200F063FA05E0012208215FF002
:10883000904000F05CFA002032BD000072B6026881
:10884000126852F0400203681A60BFF34F8FBFF303
:108850004F8F0268126832F0400203681A6062B6F5
:1088600002689268D207FBD50268127B0A70026820
:1088700092681206FBD4704710B472B603681B6886
:1088800053F040030468236092B2022A09D30368BC
:108890009B68DB07F8D503681B7B0B70491C521ED5
:1088A000F2E7BFF34F8FBFF34F8F03681B6833F0BE
:1088B00040030468236062B603689B68DB07FBD54E
:1088C00003681B7B0B7003689B681B06FBD410BC02
:1088D0007047026892689207FBD5026811730268BC
:1088E000926812F4C05FFAD1026892681206FBD453
:1088F000704780B5DFF8D80100F042FF002817D19B
:10890000DFF8D001DFF8C81148603320DFF8C0116C
:1089100088600120DFF8B811C860DFF8BC01DFF81B
:10892000B011086000F06FF8DFF8A40100F0C6FC99
:10893000DFF89C0100F024FF202801D1002000E096
:10894000012002BD2DE9F04184B004000D001600A5
:108950001F005FF00008DFF8840100680290380013
:1089600080B2019000960123EDB22A0092B2E4B2E7
:10897000210089B2DFF8580100F024FD80465FFA3B
:1089800088F8B8F1000F05D02000C0B200F032F82E
:10899000012000E0002004B0BDE8F0812DE9F041A5
:1089A00084B004000D0016001F005FF00008DFF81F
:1089B0002C0100680290380080B2019000960123DB
:1089C000EDB22A0092B2E4B2210089B2DFF80001D0
:1089D00000F0E8FD80465FFA88F8B8F1000F05D096
:1089E0002000C0B200F006F8012000E0002004B032
:1089F000BDE8F08110B50400DFF8D40000F0C1FC40
:108A0000FFF777FF10BD00B5A9B04FF48070069056
:108A10005FF480301C9006A801F04AF825480068F1
:108A200050F00400234908602248006810F0040058
:108A300000900098032001901220029002200490E0
:108A4000012003900420059001A9DFF8800000F0C8
:108A500049F81748006850F40000154908601448A8
:108A6000006810F4000000900098DFF874000068BF
:108A700050F40000DFF868100860DFF86400006858
:108A800030F40000DFF85810086000220021482070
:108A9000FDF72FFC4820FDF73FFC00220021492074
:108AA000FDF727FC4920FDF737FC29B000BD000089
:108AB000581002404C100240802701082401002079
:108AC0009CBE002000040048003800400008004818
:108AD00004C00020EC9C9010005C004020010020AD
:108AE0003810024078B40022002300240D68D540DD
:108AF000002D00F0EE800D680126964035402B00D9
:108B0000002B00F0E4804D68022D02D04D68122D3C
:108B100016D1D50800EB85052D6A2C000F2512F023
:108B20000706F6B2B600B540AC430D6912F0070671
:108B3000F6B2B600B5402C43D50800EB85052C6293
:108B400005682C0003251600F6B27600B540AC434C
:108B50000D7915F003051600F6B27600B5402C43EA
:108B600004604D68012D08D04D68022D05D04D6878
:108B7000112D02D04D68122D19D185682C000325C6
:108B80001600F6B27600B540AC43CD681600F6B2DA
:108B90007600B5402C43846045682C000125954043
:108BA000AC434D68C5F3001595402C4344600D79E6
:108BB00015F00305032D0AD1C56A2C000125954047
:108BC000AC434D68C5F3C00595402C43C462C568ED
:108BD0002C0003251600F6B27600B540AC438D6834
:108BE0001600F6B27600B5402C43C4604D68ED0027
:108BF0006DD54B4D2D6855F00105494E3560484DFA
:108C00002D6815F001050095009D464D960855F814
:108C100026502C000F2512F00306F6B2B600B54020
:108C2000AC43B0F1904F01D100251EE03E4DA8426B
:108C300001D1012519E03D4DA84201D1022514E0E2
:108C40003B4DA84201D103250FE03A4DA84201D186
:108C500004250AE0384DA84201D1052505E0374D2D
:108C6000A84201D1062500E0072512F00306F6B25E
:108C7000B600B5402C432B4D960845F82640304DA4
:108C80002D682C009C434D68ED0300D51C432C4DF2
:108C90002C602C4D2D682C009C434D68AD0300D5F5
:108CA0001C43284D2C60284D2D682C009C434D689A
:108CB000ED0200D51C43244D2C60244D2D682C0062
:108CC0009C434D68AD0200D51C43204D2C60521CC6
:108CD0000CE771BC70470200136989B20B4202D0E5
:108CE0000123180001E000231800C0B27047D2B27F
:108CF000002A02D089B2816101E089B281627047A5
:108D000010B5040012480068A4B2204206D0A4B2F4
:108D10000F480460200080B201F051FB10BD00003C
:108D200060100240080001400004004800080048AC
:108D3000000C0048001000480014004800180048CB
:108D40000004014004040140080401400C040140F7
:108D50001404014038B50400002C01D1012064E066
:108D600094F85D00002805D1002084F85C00200004
:108D700001F0E0FB022084F85D002068006830F01C
:108D8000400021680860E068B0F5E06F02D900207B
:108D9000050002E04FF480500500E068B0F5706F08
:108DA00005D0E068B0F5E06F01D00020A062206B34
:108DB000002808D1E068B0F5E06F02D902202063F6
:108DC00001E0012020636068A1680843216908432D
:108DD00061690843A16911F400710843E16908431E
:108DE000216A0843A16A084321680860206B0228B1
:108DF00005D12068006850F4006021680860A0690F
:108E0000000C10F00400616A0843616B0843E168DC
:108E10000843284321684860E06A2168086100200F
:108E20002066012084F85D00002032BD2DE9F04766
:108E300082B004000D0016001F00DDF82880FDF749
:108E4000C7F981465FF0000A94F85C00012801D15F
:108E5000022065E1012084F85C0094F85D0001289F
:108E600002D00220824653E1002D04D0002E02D011
:108E7000BFB2002F02D10120824649E1052084F8CB
:108E80005D00002020662664A4F84670A4F84470B3
:108E9000A563E787A787A06AB0F5005F0CD12068BB
:108EA00000684DF6FF71084021680860206800687E
:108EB00050F4005021680860E068B0F5E06F03D816
:108EC000B4F84600022806DB2068406830F4805081
:108ED0002168486005E02068406850F480502168AF
:108EE000486020680068400605D42068006850F09B
:108EF000400021680860E068B0F5E06F45D9E08F78
:108F0000002804D1B4F84600002800F0AA80E08FC1
:108F100000281AD020688068800716D5A06B0088CA
:108F20002168C860A06B801CA063E08F401EE087B2
:108F3000E08F002809D1A06AB0F5005F05D1206854
:108F4000006850F4805021680860B4F8460000289A
:108F50000FD020688068C0070BD52068C068216CDE
:108F60000880206C801C2064B4F84600401EA4F8E1
:108F7000460018F1010FC2D0FDF72AF9B0EB090045
:108F80004045BCD303208246C2E0E08F002803D1D5
:108F9000B4F84600002864D0E08F002827D020686D
:108FA0008068800723D5E08F02280ADBA06B008849
:108FB0002168C860A06B801CA063E08F801EE087E2
:108FC00008E0A06B411CA163007821680873E08F62
:108FD000401EE087E08F002809D1A06AB0F5005F4D
:108FE00005D12068006850F4805021680860B4F80A
:108FF0004600002829D020688068C00725D5B4F82D
:109000004600022816DB2068C068216C0880206CAE
:10901000801C2064B4F84600801EA4F84600B4F812
:109020004600022811DA2068406850F48050216818
:1090300048600AE0206C411C21642168097B0170B2
:10904000B4F84600401EA4F8460018F1010F9CD069
:10905000FDF7BEF8B0EB0900404596D303208246E9
:1090600056E0A06AB0F5005F37D1434601220121E6
:10907000200000F05AF8002806D0206E50F00200C0
:1090800020660320824643E0E068B0F5706F06D1A9
:109090002068C068ADF80000BDF800001DE0206841
:1090A000007BADF80000BDF80000206B022814D151
:1090B000434601220121200000F037F8002806D0A5
:1090C000206E50F0020020660320824620E02068D7
:1090D000007BADF80000BDF8000020688068C00685
:1090E00009D5206E50F0020020664FF6EF7021681F
:1090F0008860012082464146200000F0BCF800282C
:1091000001D020202066206E002801D00120824658
:10911000012084F85D00002084F85C005046C0B255
:10912000BDE8F68790F85D0070472DE9F041040036
:109130000D0016001F00FDF74BF880462068806880
:109140002840B0423BD017F1010FF7D0002F05D0D7
:10915000FDF73EF8B0EB0800B842EFD32068406856
:1091600030F0E000216848606068B0F5827F0DD182
:10917000A068B0F5004F03D0A068B0F5806F05D1AE
:109180002068006830F0400021680860A06AB0F5EF
:10919000005F0CD1206800684DF6FF71084021681F
:1091A00008602068006850F40050216808600120C1
:1091B00084F85D00002084F85C00032000E00020BB
:1091C000BDE8F0812DE9F04182B004000D001600E9
:1091D0001F00FCF7FDFF8046206880682840B042F1
:1091E00046D0B5F5C06F07D1002E05D12068007BB1
:1091F0008DF800009DF8000017F1010FECD0002F52
:1092000005D0FCF7E5FFB0EB0800B842E4D32068D6
:10921000406830F0E000216848606068B0F5827F07
:109220000DD1A068B0F5004F03D0A068B0F5806FF5
:1092300005D12068006830F0400021680860A06A0D
:10924000B0F5005F0CD1206800684DF6FF71084052
:10925000216808602068006850F4005021680860A8
:10926000012084F85D00002084F85C00032000E009
:109270000020BDE8F68138B504000D002B00002267
:109280004FF4C0512000FFF79DFF002805D0206E4D
:1092900050F02000206603200EE02B0000228021E9
:1092A0002000FFF742FF002805D0206E50F020007C
:1092B0002066032000E0002032BD000010B504004D
:1092C000002C01D101205BE094F84100002805D179
:1092D000002084F84000200000F0E8FB242084F8FF
:1092E000410020680068400840002168086060680C
:1092F00030F07060216808612068806830F40040B8
:1093000021688860A06800280DD0E068012805D198
:10931000A06850F400402168886004E0A06850F420
:10932000044021688860E068022803D14FF400609F
:10933000216848602068406840F0007050F40040A8
:1093400021684860206961690843A16950EA0120E9
:109350002168C860E069216A0843216808602068C4
:10936000006850F00100216808600020606420203F
:1093700084F8410000202063002084F8420000208F
:1093800010BD10B50400002C01D1012019E02420EB
:1093900084F84100206800684008400021680860A7
:1093A000200001F04FFB00206064002084F84100A1
:1093B00000202063002084F84200002084F8400050
:1093C000002010BD2DE9F04F83B005000E001700FE
:1093D0009846DDF830900D9CDDF838A05FF0000B6A
:1093E00095F84100202840F0D780B9F1000F02D055
:1093F000A4B2002C01D10120CFE095F84000012853
:1094000001D10220C9E0012085F84000FCF7E0FE10
:109410008346CDF800B0192301224FF40041280003
:1094200000F06BFA002801D00320B6E0212085F877
:109430004100402085F8420000206864C5F824906F
:109440006C8500206863CDF804B0CDF800A04346D9
:109450009BB23A0092B2310089B2280000F096F92E
:1094600000280CD0686C042804D1002085F8400046
:10947000012092E0002085F8400003208DE0688DF7
:10948000FF280DD9FF202885002000905FF0807311
:109490002A8DD2B2310089B2280000F0EEFA0CE039
:1094A000688D2885002000905FF000732A8DD2B26D
:1094B000310089B2280000F0E0FA5A4651462800EF
:1094C00000F047FA002806D0686C042801D101207A
:1094D00063E0032061E0686A411C696200782968E2
:1094E0008862688D401E6885288D401E2885288DDD
:1094F00000282CD1688D002829D0CDF800B0534623
:1095000000228021280000F0F8F9002801D0032073
:1095100043E0688DFF280DD9FF20288500200090AA
:109520005FF080732A8DD2B2310089B2280000F03A
:10953000A4FA0CE0688D2885002000905FF000738D
:109540002A8DD2B2310089B2280000F096FA688DD7
:109550000028B2D15A465146280000F026FA0028C9
:1095600006D0686C042801D1012016E0032014E025
:1095700020202968C861286840680949084029688E
:109580004860202085F84100002085F84200002036
:1095900085F84000002000E00220BDE8FE8F0000BA
:1095A00000E800FE2DE9F04F83B005000E00170023
:1095B0009846DDF830900D9CDDF838A05FF0000B88
:1095C00095F84100202840F0D880B9F1000F02D072
:1095D000A4B2002C01D10120D0E095F84000012870
:1095E00001D10220CAE0012085F84000FCF7F0FD1F
:1095F0008346CDF800B0192301224FF40041280022
:1096000000F07BF9002801D00320B7E0222085F884
:109610004100402085F8420000206864C5F824908D
:109620006C8500206863CDF804B0CDF800A04346F7
:109630009BB23A0092B2310089B2280000F0F9F8EA
:1096400000280CD0686C042804D1002085F8400064
:10965000012093E0002085F8400003208EE0688D13
:10966000FF280ED9FF2028854FF4105000905FF09E
:1096700080732A8DD2B2310089B2280000F0FDF942
:109680000DE0688D28854FF4105000905FF0007356
:109690002A8DD2B2310089B2280000F0EEF9CDF85F
:1096A00000B0534600220421280000F026F90028CB
:1096B00001D0032062E0686A411C69622968496A36
:1096C0000170288D401E2885688D401E6885288D74
:1096D00000282CD1688D002829D0CDF800B0534641
:1096E00000228021280000F008F9002801D0032082
:1096F00044E0688DFF280DD9FF20288500200090C8
:109700005FF080732A8DD2B2310089B2280000F058
:10971000B4F90CE0688D2885002000905FF000739C
:109720002A8DD2B2310089B2280000F0A6F9688DE6
:109730000028B4D15A465146280000F036F90028D6
:1097400006D0686C042801D1012017E0032015E041
:1097500020202968C86128684068DFF82C1008407C
:1097600029684860202085F84100002085F84200E3
:10977000002085F84000002000E00220BDE8FE8FB8
:1097800090F841007047000000E800FE2DE9F84322
:1097900004000D0016001F00DDF82080DDF8249085
:1097A0004FF4005000905FF080733A00D2B229006D
:1097B00089B2200000F061F94A464146200000F0DD
:1097C000C8F8002806D0606C042801D101202EE0E2
:1097D00003202CE0BFB2012F04D13000C0B22168B9
:1097E000886217E0300080B2000AC0B22168886247
:1097F0004A464146200000F0ACF8002806D0606CD4
:10980000042801D1012012E0032010E03000C0B292
:1098100021688862CDF80090434600228021200014
:1098200000F06BF8002801D0032000E00020BDE824
:10983000F2832DE9F84304000D0016001F00DDF847
:109840002080DDF824904FF40050009000233A006F
:10985000D2B2290089B2200000F00FF94A464146F1
:10986000200000F076F8002806D0606C042801D1B2
:1098700001202EE003202CE0BFB2012F04D13000E4
:10988000C0B22168886217E0300080B2000AC0B21E
:10989000216888624A464146200000F05AF80028B4
:1098A00006D0606C042801D1012012E0032010E0F2
:1098B0003000C0B221688862CDF800904346002293
:1098C0004021200000F019F8002801D0032000E01A
:1098D0000020BDE8F28301688969890702D500216B
:1098E0000268916201688969C90705D401688969BC
:1098F00051F001010268916170472DE9F0410400C7
:109900000D0016001F00DDF81880206880692840CF
:10991000A84201D1012000E00020F6B2B04215D1EA
:1099200017F1010FF1D0002F05D0FCF751FCB0EB7F
:1099300008008742E9D2202084F84100002084F802
:109940004200002084F84000032000E00020BDE831
:10995000F08170B504000D00160020688069800752
:1099600021D432002900200000F048F8002801D05E
:10997000012019E015F1010FEFD0002D04D0FCF704
:1099800027FC801B8542E8D2606C50F020006064A8
:10999000202084F84100002084F84200002084F850
:1099A0004000032000E0002070BD70B504000D00F1
:1099B00016002068806980061ED43200290020002D
:1099C00000F01CF8002801D0012016E0002D04D082
:1099D000FCF7FEFB801B8542EBD2606C50F0200050
:1099E0006064202084F84100002084F842000020B8
:1099F00084F84000032000E0002070BD70B5040032
:109A00000D00160020688069C00634D52068806982
:109A1000800614D415F1010FF8D0002D04D0FCF706
:109A2000D7FB801B8542F1D2202084F84100002022
:109A300084F84200002084F8400003201CE010203D
:109A40002168C86120202168C8612000FFF743FF1A
:109A50002068406813490840216848600420606419
:109A6000202084F84100002084F84200002084F87F
:109A70004000012000E0002070BD70B4039C002570
:109A8000066876683500084E354089B28E05B60DF9
:109A9000D2B256EA02461E43264335430668756035
:109AA00070BC704700E800FE009800FC70470000A2
:109AB0002DE9F84304000025002600275FF0000888
:109AC0002068000534D5606E002812D0B0F5800FF4
:109AD00015D0B0F5000F03D0B0F5400F16D016E04A
